{
  "contractName": "BombBank",
  "abi": [
    {
      "inputs": [
        {
          "internalType": "address",
          "name": "_bomb",
          "type": "address"
        },
        {
          "internalType": "address",
          "name": "_lbomb",
          "type": "address"
        }
      ],
      "payable": false,
      "stateMutability": "nonpayable",
      "type": "constructor"
    },
    {
      "anonymous": false,
      "inputs": [
        {
          "indexed": false,
          "internalType": "address",
          "name": "donor",
          "type": "address"
        },
        {
          "indexed": false,
          "internalType": "uint256",
          "name": "amount",
          "type": "uint256"
        }
      ],
      "name": "Donated",
      "type": "event"
    },
    {
      "constant": true,
      "inputs": [],
      "name": "BombToken",
      "outputs": [
        {
          "internalType": "contract ERC20",
          "name": "",
          "type": "address"
        }
      ],
      "payable": false,
      "stateMutability": "view",
      "type": "function"
    },
    {
      "constant": true,
      "inputs": [],
      "name": "lBombToken",
      "outputs": [
        {
          "internalType": "contract LBombToken",
          "name": "",
          "type": "address"
        }
      ],
      "payable": false,
      "stateMutability": "view",
      "type": "function"
    },
    {
      "constant": false,
      "inputs": [
        {
          "internalType": "uint256",
          "name": "amount",
          "type": "uint256"
        }
      ],
      "name": "foo",
      "outputs": [],
      "payable": false,
      "stateMutability": "nonpayable",
      "type": "function"
    },
    {
      "constant": false,
      "inputs": [
        {
          "internalType": "uint256",
          "name": "amount",
          "type": "uint256"
        }
      ],
      "name": "wrap",
      "outputs": [
        {
          "internalType": "uint256",
          "name": "wrappedAmount",
          "type": "uint256"
        }
      ],
      "payable": false,
      "stateMutability": "nonpayable",
      "type": "function"
    },
    {
      "constant": true,
      "inputs": [
        {
          "internalType": "uint256",
          "name": "bombSupplied",
          "type": "uint256"
        }
      ],
      "name": "getLBombAmount",
      "outputs": [
        {
          "internalType": "uint256",
          "name": "amount",
          "type": "uint256"
        }
      ],
      "payable": false,
      "stateMutability": "view",
      "type": "function"
    },
    {
      "constant": false,
      "inputs": [
        {
          "internalType": "uint256",
          "name": "amount",
          "type": "uint256"
        }
      ],
      "name": "donate",
      "outputs": [],
      "payable": false,
      "stateMutability": "nonpayable",
      "type": "function"
    },
    {
      "constant": true,
      "inputs": [
        {
          "internalType": "uint256",
          "name": "amount",
          "type": "uint256"
        }
      ],
      "name": "getBombAmount",
      "outputs": [
        {
          "internalType": "uint256",
          "name": "retVal",
          "type": "uint256"
        }
      ],
      "payable": false,
      "stateMutability": "view",
      "type": "function"
    },
    {
      "constant": true,
      "inputs": [],
      "name": "backedBy",
      "outputs": [
        {
          "internalType": "uint256",
          "name": "",
          "type": "uint256"
        }
      ],
      "payable": false,
      "stateMutability": "view",
      "type": "function"
    },
    {
      "constant": false,
      "inputs": [
        {
          "internalType": "uint256",
          "name": "amount",
          "type": "uint256"
        }
      ],
      "name": "unwrap",
      "outputs": [
        {
          "internalType": "uint256",
          "name": "unwrappedAmount",
          "type": "uint256"
        }
      ],
      "payable": false,
      "stateMutability": "nonpayable",
      "type": "function"
    }
  ],
  "bytecode": "0x608060405234801561001057600080fd5b5060405161120f38038061120f8339818101604052604081101561003357600080fd5b810190808051906020019092919080519060200190929190505050816000806101000a81548173ffffffffffffffffffffffffffffffffffffffff021916908373ffffffffffffffffffffffffffffffffffffffff16021790555080600160006101000a81548173ffffffffffffffffffffffffffffffffffffffff021916908373ffffffffffffffffffffffffffffffffffffffff160217905550505061112f806100e06000396000f3fe608060405234801561001057600080fd5b50600436106100935760003560e01c8063d084686d11610066578063d084686d14610170578063de0e9a3e146101ba578063ea598cb0146101fc578063f14faf6f1461023e578063fe043ee61461026c57610093565b80631739f9a51461009857806328a7898e146100e25780632fbebd381461010057806368dd97471461012e575b600080fd5b6100a06102ae565b604051808273ffffffffffffffffffffffffffffffffffffffff1673ffffffffffffffffffffffffffffffffffffffff16815260200191505060405180910390f35b6100ea6102d3565b6040518082815260200191505060405180910390f35b61012c6004803603602081101561011657600080fd5b81019080803590602001909291905050506103b8565b005b61015a6004803603602081101561014457600080fd5b81019080803590602001909291905050506103bb565b6040518082815260200191505060405180910390f35b610178610550565b604051808273ffffffffffffffffffffffffffffffffffffffff1673ffffffffffffffffffffffffffffffffffffffff16815260200191505060405180910390f35b6101e6600480360360208110156101d057600080fd5b8101908080359060200190929190505050610576565b6040518082815260200191505060405180910390f35b6102286004803603602081101561021257600080fd5b8101908080359060200190929190505050610a0c565b6040518082815260200191505060405180910390f35b61026a6004803603602081101561025457600080fd5b8101908080359060200190929190505050610db9565b005b6102986004803603602081101561028257600080fd5b8101908080359060200190929190505050610f3f565b6040518082815260200191505060405180910390f35b6000809054906101000a900473ffffffffffffffffffffffffffffffffffffffff1681565b6000806000809054906101000a900473ffffffffffffffffffffffffffffffffffffffff1673ffffffffffffffffffffffffffffffffffffffff166370a08231306040518263ffffffff1660e01b8152600401808273ffffffffffffffffffffffffffffffffffffffff1673ffffffffffffffffffffffffffffffffffffffff16815260200191505060206040518083038186803b15801561037457600080fd5b505afa158015610388573d6000803e3d6000fd5b505050506040513d602081101561039e57600080fd5b810190808051906020019092919050505090508091505090565b50565b6000816000809054906101000a900473ffffffffffffffffffffffffffffffffffffffff1673ffffffffffffffffffffffffffffffffffffffff166370a08231306040518263ffffffff1660e01b8152600401808273ffffffffffffffffffffffffffffffffffffffff1673ffffffffffffffffffffffffffffffffffffffff16815260200191505060206040518083038186803b15801561045c57600080fd5b505afa158015610470573d6000803e3d6000fd5b505050506040513d602081101561048657600080fd5b8101908080519060200190929190505050029050600160009054906101000a900473ffffffffffffffffffffffffffffffffffffffff1673ffffffffffffffffffffffffffffffffffffffff166318160ddd6040518163ffffffff1660e01b815260040160206040518083038186803b15801561050257600080fd5b505afa158015610516573d6000803e3d6000fd5b505050506040513d602081101561052c57600080fd5b8101908080519060200190929190505050818161054557fe5b049050809050919050565b600160009054906101000a900473ffffffffffffffffffffffffffffffffffffffff1681565b600080610582836103bb565b9050600160009054906101000a900473ffffffffffffffffffffffffffffffffffffffff1673ffffffffffffffffffffffffffffffffffffffff166323b872dd3330866040518463ffffffff1660e01b8152600401808473ffffffffffffffffffffffffffffffffffffffff1673ffffffffffffffffffffffffffffffffffffffff1681526020018373ffffffffffffffffffffffffffffffffffffffff1673ffffffffffffffffffffffffffffffffffffffff1681526020018281526020019350505050602060405180830381600087803b15801561066157600080fd5b505af1158015610675573d6000803e3d6000fd5b505050506040513d602081101561068b57600080fd5b810190808051906020019092919050505050600160009054906101000a900473ffffffffffffffffffffffffffffffffffffffff1673ffffffffffffffffffffffffffffffffffffffff16639dc29fac30856040518363ffffffff1660e01b8152600401808373ffffffffffffffffffffffffffffffffffffffff1673ffffffffffffffffffffffffffffffffffffffff16815260200182815260200192505050600060405180830381600087803b15801561074657600080fd5b505af115801561075a573d6000803e3d6000fd5b5050505060008060009054906101000a900473ffffffffffffffffffffffffffffffffffffffff1673ffffffffffffffffffffffffffffffffffffffff166370a08231336040518263ffffffff1660e01b8152600401808273ffffffffffffffffffffffffffffffffffffffff1673ffffffffffffffffffffffffffffffffffffffff16815260200191505060206040518083038186803b1580156107fe57600080fd5b505afa158015610812573d6000803e3d6000fd5b505050506040513d602081101561082857600080fd5b810190808051906020019092919050505090506000809054906101000a900473ffffffffffffffffffffffffffffffffffffffff1673ffffffffffffffffffffffffffffffffffffffff1663a9059cbb33846040518363ffffffff1660e01b8152600401808373ffffffffffffffffffffffffffffffffffffffff1673ffffffffffffffffffffffffffffffffffffffff16815260200182815260200192505050602060405180830381600087803b1580156108e357600080fd5b505af11580156108f7573d6000803e3d6000fd5b505050506040513d602081101561090d57600080fd5b81019080805190602001909291905050505060008060009054906101000a900473ffffffffffffffffffffffffffffffffffffffff1673ffffffffffffffffffffffffffffffffffffffff166370a08231336040518263ffffffff1660e01b8152600401808273ffffffffffffffffffffffffffffffffffffffff1673ffffffffffffffffffffffffffffffffffffffff16815260200191505060206040518083038186803b1580156109bf57600080fd5b505afa1580156109d3573d6000803e3d6000fd5b505050506040513d60208110156109e957600080fd5b810190808051906020019092919050505090508181039350839350505050919050565b6000806000809054906101000a900473ffffffffffffffffffffffffffffffffffffffff1673ffffffffffffffffffffffffffffffffffffffff166370a08231306040518263ffffffff1660e01b8152600401808273ffffffffffffffffffffffffffffffffffffffff1673ffffffffffffffffffffffffffffffffffffffff16815260200191505060206040518083038186803b158015610aad57600080fd5b505afa158015610ac1573d6000803e3d6000fd5b505050506040513d6020811015610ad757600080fd5b810190808051906020019092919050505090506000809054906101000a900473ffffffffffffffffffffffffffffffffffffffff1673ffffffffffffffffffffffffffffffffffffffff166323b872dd3330866040518463ffffffff1660e01b8152600401808473ffffffffffffffffffffffffffffffffffffffff1673ffffffffffffffffffffffffffffffffffffffff1681526020018373ffffffffffffffffffffffffffffffffffffffff1673ffffffffffffffffffffffffffffffffffffffff1681526020018281526020019350505050602060405180830381600087803b158015610bc657600080fd5b505af1158015610bda573d6000803e3d6000fd5b505050506040513d6020811015610bf057600080fd5b81019080805190602001909291905050505060008060009054906101000a900473ffffffffffffffffffffffffffffffffffffffff1673ffffffffffffffffffffffffffffffffffffffff166370a08231306040518263ffffffff1660e01b8152600401808273ffffffffffffffffffffffffffffffffffffffff1673ffffffffffffffffffffffffffffffffffffffff16815260200191505060206040518083038186803b158015610ca257600080fd5b505afa158015610cb6573d6000803e3d6000fd5b505050506040513d6020811015610ccc57600080fd5b81019080805190602001909291905050509050600160009054906101000a900473ffffffffffffffffffffffffffffffffffffffff1673ffffffffffffffffffffffffffffffffffffffff166340c10f1933610d29858503610f3f565b6040518363ffffffff1660e01b8152600401808373ffffffffffffffffffffffffffffffffffffffff1673ffffffffffffffffffffffffffffffffffffffff16815260200182815260200192505050600060405180830381600087803b158015610d9257600080fd5b505af1158015610da6573d6000803e3d6000fd5b5050505081810392508292505050919050565b6000809054906101000a900473ffffffffffffffffffffffffffffffffffffffff1673ffffffffffffffffffffffffffffffffffffffff166323b872dd3330846040518463ffffffff1660e01b8152600401808473ffffffffffffffffffffffffffffffffffffffff1673ffffffffffffffffffffffffffffffffffffffff1681526020018373ffffffffffffffffffffffffffffffffffffffff1673ffffffffffffffffffffffffffffffffffffffff1681526020018281526020019350505050602060405180830381600087803b158015610e9557600080fd5b505af1158015610ea9573d6000803e3d6000fd5b505050506040513d6020811015610ebf57600080fd5b8101908080519060200190929190505050507f2a01595cddf097c90216094025db714da3f4e5bd8877b56ba86a24ecead8e5433382604051808373ffffffffffffffffffffffffffffffffffffffff1673ffffffffffffffffffffffffffffffffffffffff1681526020018281526020019250505060405180910390a150565b6000806000809054906101000a900473ffffffffffffffffffffffffffffffffffffffff1673ffffffffffffffffffffffffffffffffffffffff166370a08231306040518263ffffffff1660e01b8152600401808273ffffffffffffffffffffffffffffffffffffffff1673ffffffffffffffffffffffffffffffffffffffff16815260200191505060206040518083038186803b158015610fe057600080fd5b505afa158015610ff4573d6000803e3d6000fd5b505050506040513d602081101561100a57600080fd5b810190808051906020019092919050505090506000600160009054906101000a900473ffffffffffffffffffffffffffffffffffffffff1673ffffffffffffffffffffffffffffffffffffffff166318160ddd6040518163ffffffff1660e01b815260040160206040518083038186803b15801561108757600080fd5b505afa15801561109b573d6000803e3d6000fd5b505050506040513d60208110156110b157600080fd5b8101908080519060200190929190505050905060008114156110df57670de0b6b3a7640000840292506110f0565b838203848202816110ec57fe5b0492505b829250505091905056fea265627a7a72315820ab072cd2f2101b7216e78b5edc434d031c9a2a5e31c0a0697ca555d88897be9f64736f6c634300050c0032",
  "source": "pragma solidity >=0.4.21 <0.6.0;\n\nimport \"openzeppelin-solidity/contracts/token/ERC20/ERC20.sol\";\nimport \"./LBombToken.sol\";\n\ncontract BombBank {\n    ERC20 public BombToken;\n    LBombToken public lBombToken;\n\n    constructor(address _bomb, address _lbomb) public {\n        BombToken = ERC20(_bomb);\n        lBombToken = LBombToken(_lbomb);\n    }\n\n    function foo(uint256 amount) public {}\n\n    function wrap(uint256 amount) public returns (uint256 wrappedAmount) {\n        uint256 prevBalance = BombToken.balanceOf(address(this));\n        BombToken.transferFrom(msg.sender, address(this), amount);\n        uint256 balanceAfter = BombToken.balanceOf(address(this));\n\n        lBombToken.mint(msg.sender, getLBombAmount(balanceAfter - prevBalance));\n\n        wrappedAmount = (balanceAfter - prevBalance);\n\n        return wrappedAmount;\n    }\n\n    function getLBombAmount(uint256 bombSupplied)\n        public\n        view\n        returns (uint256 amount)\n    {\n        uint256 totalBomb = BombToken.balanceOf(address(this));\n        uint256 totalLBomb = lBombToken.totalSupply();\n\n        if (totalLBomb == 0) {\n            amount = bombSupplied * (10**18);\n        } else {\n            amount = (totalLBomb * bombSupplied) / (totalBomb - bombSupplied);\n        }\n        return amount;\n    }\n\n    function donate(uint256 amount) public {\n        BombToken.transferFrom(msg.sender, address(this), amount);\n        emit Donated(msg.sender, amount);\n    }\n\n    function getBombAmount(uint256 amount)\n        public\n        view\n        returns (uint256 retVal)\n    {\n        retVal = BombToken.balanceOf(address(this)) * amount;\n        retVal = retVal / lBombToken.totalSupply();\n        return retVal;\n    }\n\n    function backedBy() public view returns (uint256) {\n        uint256 retVal = BombToken.balanceOf(address(this));\n        return retVal;\n    }\n\n    function unwrap(uint256 amount) public returns (uint256 unwrappedAmount) {\n        uint256 bombAmount = getBombAmount(amount);\n        lBombToken.transferFrom(msg.sender, address(this), amount);\n        lBombToken.burn(address(this), amount);\n        uint256 balanceBefore = BombToken.balanceOf(msg.sender);\n        BombToken.transfer(msg.sender, bombAmount);\n        uint256 balanceAfter = BombToken.balanceOf(msg.sender);\n        unwrappedAmount = balanceAfter - balanceBefore;\n        return unwrappedAmount;\n    }\n\n    event Donated(address donor, uint256 amount);\n\n}\n",
  "sourcePath": "/home/adam/Desktop/Blockchain/private/BombBank/contracts/BombBank.sol",
  "compiler": {
    "name": "solc",
    "version": "0.5.12+commit.7709ece9.Emscripten.clang"
  },
  "schemaVersion": "3.0.20",
  "updatedAt": "2020-02-06T16:52:24.715Z",
  "networkType": "ethereum",
  "devdoc": {
    "methods": {}
  },
  "userdoc": {
    "methods": {}
  }
}